{
  "address": "0xCf7Ed3AccA5a467e9e704C703E8D87F634fB0Fc9",
  "abi": [
    {
      "inputs": [
        {
          "internalType": "address",
          "name": "_vrfCoordinatorV2",
          "type": "address"
        },
        {
          "internalType": "uint256",
          "name": "_fee",
          "type": "uint256"
        },
        {
          "internalType": "bytes32",
          "name": "_gaslane",
          "type": "bytes32"
        },
        {
          "internalType": "uint64",
          "name": "_subscriptionID",
          "type": "uint64"
        },
        {
          "internalType": "uint32",
          "name": "_gasLimit",
          "type": "uint32"
        },
        {
          "internalType": "uint16",
          "name": "_interval",
          "type": "uint16"
        }
      ],
      "stateMutability": "nonpayable",
      "type": "constructor"
    },
    {
      "inputs": [],
      "name": "Lottery__NotEnoughETH",
      "type": "error"
    },
    {
      "inputs": [],
      "name": "Lottery__NotOpen",
      "type": "error"
    },
    {
      "inputs": [],
      "name": "Lottery__TransferFailed",
      "type": "error"
    },
    {
      "inputs": [
        {
          "internalType": "uint256",
          "name": "currentBalance",
          "type": "uint256"
        },
        {
          "internalType": "uint256",
          "name": "numPlayers",
          "type": "uint256"
        },
        {
          "internalType": "enum LotteryState",
          "name": "state",
          "type": "uint8"
        }
      ],
      "name": "Lottery__UpkeepNotNeeded",
      "type": "error"
    },
    {
      "inputs": [
        {
          "internalType": "address",
          "name": "have",
          "type": "address"
        },
        {
          "internalType": "address",
          "name": "want",
          "type": "address"
        }
      ],
      "name": "OnlyCoordinatorCanFulfill",
      "type": "error"
    },
    {
      "anonymous": false,
      "inputs": [
        {
          "indexed": true,
          "internalType": "address",
          "name": "player",
          "type": "address"
        }
      ],
      "name": "LotteryEnter",
      "type": "event"
    },
    {
      "anonymous": false,
      "inputs": [
        {
          "indexed": true,
          "internalType": "uint256",
          "name": "requestID",
          "type": "uint256"
        }
      ],
      "name": "RequestedWinner",
      "type": "event"
    },
    {
      "anonymous": false,
      "inputs": [
        {
          "indexed": true,
          "internalType": "address",
          "name": "winner",
          "type": "address"
        }
      ],
      "name": "WinnerPicked",
      "type": "event"
    },
    {
      "inputs": [
        {
          "internalType": "bytes",
          "name": "",
          "type": "bytes"
        }
      ],
      "name": "checkUpkeep",
      "outputs": [
        {
          "internalType": "bool",
          "name": "upkeepNeeded",
          "type": "bool"
        },
        {
          "internalType": "bytes",
          "name": "",
          "type": "bytes"
        }
      ],
      "stateMutability": "nonpayable",
      "type": "function"
    },
    {
      "inputs": [],
      "name": "getInterval",
      "outputs": [
        {
          "internalType": "uint256",
          "name": "",
          "type": "uint256"
        }
      ],
      "stateMutability": "view",
      "type": "function"
    },
    {
      "inputs": [],
      "name": "getLatestTimestamp",
      "outputs": [
        {
          "internalType": "uint256",
          "name": "",
          "type": "uint256"
        }
      ],
      "stateMutability": "view",
      "type": "function"
    },
    {
      "inputs": [],
      "name": "getLotteryState",
      "outputs": [
        {
          "internalType": "enum LotteryState",
          "name": "",
          "type": "uint8"
        }
      ],
      "stateMutability": "view",
      "type": "function"
    },
    {
      "inputs": [],
      "name": "getPlayFee",
      "outputs": [
        {
          "internalType": "uint256",
          "name": "",
          "type": "uint256"
        }
      ],
      "stateMutability": "view",
      "type": "function"
    },
    {
      "inputs": [
        {
          "internalType": "uint256",
          "name": "index",
          "type": "uint256"
        }
      ],
      "name": "getPlayer",
      "outputs": [
        {
          "internalType": "address",
          "name": "",
          "type": "address"
        }
      ],
      "stateMutability": "view",
      "type": "function"
    },
    {
      "inputs": [],
      "name": "getWinner",
      "outputs": [
        {
          "internalType": "address",
          "name": "",
          "type": "address"
        }
      ],
      "stateMutability": "view",
      "type": "function"
    },
    {
      "inputs": [
        {
          "internalType": "bytes",
          "name": "",
          "type": "bytes"
        }
      ],
      "name": "performUpkeep",
      "outputs": [],
      "stateMutability": "nonpayable",
      "type": "function"
    },
    {
      "inputs": [],
      "name": "play",
      "outputs": [],
      "stateMutability": "payable",
      "type": "function"
    },
    {
      "inputs": [],
      "name": "playFee",
      "outputs": [
        {
          "internalType": "uint256",
          "name": "",
          "type": "uint256"
        }
      ],
      "stateMutability": "view",
      "type": "function"
    },
    {
      "inputs": [
        {
          "internalType": "uint256",
          "name": "requestId",
          "type": "uint256"
        },
        {
          "internalType": "uint256[]",
          "name": "randomWords",
          "type": "uint256[]"
        }
      ],
      "name": "rawFulfillRandomWords",
      "outputs": [],
      "stateMutability": "nonpayable",
      "type": "function"
    }
  ],
  "transactionHash": "0x80a5f7c59e9663f676fa3e7fdc2a0c30d481ad77b3de3944b2807ee1f8eb5e06",
  "args": [
    "0x5FbDB2315678afecb367f032d93F642f64180aa3",
    "10000000000000000",
    "0xd89b2bf150e3b9e13446986e571fb9cab24b13cea0a43ea20a6049a85cc807cc",
    "1",
    500000,
    30
  ],
  "numDeployments": 1,
  "solcInputHash": "86cc162e9b927d255b70c247d841b5e9",
  "bytecode": "0x6101606040523480156200001257600080fd5b50604051620017fc380380620017fc8339818101604052810190620000389190620002db565b858073ffffffffffffffffffffffffffffffffffffffff1660808173ffffffffffffffffffffffffffffffffffffffff1681525050508460a081815250508361010081815250508267ffffffffffffffff166101208167ffffffffffffffff16815250508163ffffffff166101408163ffffffff16815250506000600160146101000a81548160ff02191690836001811115620000da57620000d962000377565b5b0217905550426002819055508061ffff1660c08161ffff16815250508573ffffffffffffffffffffffffffffffffffffffff1660e08173ffffffffffffffffffffffffffffffffffffffff1681525050505050505050620003a6565b600080fd5b600073ffffffffffffffffffffffffffffffffffffffff82169050919050565b600062000168826200013b565b9050919050565b6200017a816200015b565b81146200018657600080fd5b50565b6000815190506200019a816200016f565b92915050565b6000819050919050565b620001b581620001a0565b8114620001c157600080fd5b50565b600081519050620001d581620001aa565b92915050565b6000819050919050565b620001f081620001db565b8114620001fc57600080fd5b50565b6000815190506200021081620001e5565b92915050565b600067ffffffffffffffff82169050919050565b620002358162000216565b81146200024157600080fd5b50565b60008151905062000255816200022a565b92915050565b600063ffffffff82169050919050565b62000276816200025b565b81146200028257600080fd5b50565b60008151905062000296816200026b565b92915050565b600061ffff82169050919050565b620002b5816200029c565b8114620002c157600080fd5b50565b600081519050620002d581620002aa565b92915050565b60008060008060008060c08789031215620002fb57620002fa62000136565b5b60006200030b89828a0162000189565b96505060206200031e89828a01620001c4565b95505060406200033189828a01620001ff565b94505060606200034489828a0162000244565b93505060806200035789828a0162000285565b92505060a06200036a89828a01620002c4565b9150509295509295509295565b7f4e487b7100000000000000000000000000000000000000000000000000000000600052602160045260246000fd5b60805160a05160c05160e0516101005161012051610140516113df6200041d60003960006109910152600061096e0152600061094d0152600061091101526000818161046501526104e901526000818161027e0152818161036401526105800152600081816102a401526102f801526113df6000f3fe60806040526004361061009c5760003560e01c80636e04ff0d116100645780636e04ff0d146101745780638e7ea5b2146101b257806391ad27b4146101dd57806393e84cd914610208578063e55ae4e814610212578063f43b52cb1461024f5761009c565b80630e80d4da146100a15780631fe543e3146100cc578063283d314a146100f55780634585e33b146101205780636b68c03c14610149575b600080fd5b3480156100ad57600080fd5b506100b661027a565b6040516100c39190610b69565b60405180910390f35b3480156100d857600080fd5b506100f360048036038101906100ee9190610d1d565b6102a2565b005b34801561010157600080fd5b5061010a610362565b6040516101179190610b69565b60405180910390f35b34801561012c57600080fd5b5061014760048036038101906101429190610dd4565b610386565b005b34801561015557600080fd5b5061015e61040a565b60405161016b9190610e98565b60405180910390f35b34801561018057600080fd5b5061019b60048036038101906101969190610f68565b610421565b6040516101a992919061104b565b60405180910390f35b3480156101be57600080fd5b506101c76104bb565b6040516101d491906110bc565b60405180910390f35b3480156101e957600080fd5b506101f26104e5565b6040516101ff9190610b69565b60405180910390f35b610210610511565b005b34801561021e57600080fd5b50610239600480360381019061023491906110d7565b610680565b60405161024691906110bc565b60405180910390f35b34801561025b57600080fd5b506102646106c7565b6040516102719190610b69565b60405180910390f35b60007f0000000000000000000000000000000000000000000000000000000000000000905090565b7f000000000000000000000000000000000000000000000000000000000000000073ffffffffffffffffffffffffffffffffffffffff163373ffffffffffffffffffffffffffffffffffffffff161461035457337f00000000000000000000000000000000000000000000000000000000000000006040517f1cf993f400000000000000000000000000000000000000000000000000000000815260040161034b929190611104565b60405180910390fd5b61035e82826106d1565b5050565b7f000000000000000000000000000000000000000000000000000000000000000081565b60006103a060405180602001604052806000815250610421565b509050806103fd5747600080549050600160149054906101000a900460ff166040517f8c4c25f10000000000000000000000000000000000000000000000000000000081526004016103f49392919061112d565b60405180910390fd5b6104056108e3565b505050565b6000600160149054906101000a900460ff16905090565b60006060600160149054906101000a900460ff16600181111561044757610446610e21565b5b6000600181111561045b5761045a610e21565b5b14801561049857507f000000000000000000000000000000000000000000000000000000000000000061ffff16600254426104969190611193565b115b80156104a8575060008080549050115b80156104b45750600047115b9150915091565b6000600160009054906101000a900473ffffffffffffffffffffffffffffffffffffffff16905090565b60007f000000000000000000000000000000000000000000000000000000000000000061ffff16905090565b6000600181111561052557610524610e21565b5b600160149054906101000a900460ff16600181111561054757610546610e21565b5b1461057e576040517fe76be6fc00000000000000000000000000000000000000000000000000000000815260040160405180910390fd5b7f00000000000000000000000000000000000000000000000000000000000000003410156105d8576040517f6844f56200000000000000000000000000000000000000000000000000000000815260040160405180910390fd5b6000339080600181540180825580915050600190039060005260206000200160009091909190916101000a81548173ffffffffffffffffffffffffffffffffffffffff021916908373ffffffffffffffffffffffffffffffffffffffff1602179055503373ffffffffffffffffffffffffffffffffffffffff167f1d64fb5ba9f2548c5b98468d58f25b87b9e866afee0122e92d9fe722bf85076c60405160405180910390a2565b6000808281548110610695576106946111c7565b5b9060005260206000200160009054906101000a900473ffffffffffffffffffffffffffffffffffffffff169050919050565b6000600254905090565b60008080549050826000815181106106ec576106eb6111c7565b5b60200260200101516106fe9190611225565b8154811061070f5761070e6111c7565b5b9060005260206000200160009054906101000a900473ffffffffffffffffffffffffffffffffffffffff16600160006101000a81548173ffffffffffffffffffffffffffffffffffffffff021916908373ffffffffffffffffffffffffffffffffffffffff1602179055506000600160009054906101000a900473ffffffffffffffffffffffffffffffffffffffff1673ffffffffffffffffffffffffffffffffffffffff16476040516107c290611287565b60006040518083038185875af1925050503d80600081146107ff576040519150601f19603f3d011682016040523d82523d6000602084013e610804565b606091505b505090508061083f576040517f1c94012000000000000000000000000000000000000000000000000000000000815260040160405180910390fd5b610847610a47565b426002819055506000600160146101000a81548160ff0219169083600181111561087457610873610e21565b5b0217905550600160009054906101000a900473ffffffffffffffffffffffffffffffffffffffff1673ffffffffffffffffffffffffffffffffffffffff167f5b690ec4a06fe979403046eaeea5b3ce38524683c3001f662c8b5a829632f7df60405160405180910390a2505050565b60018060146101000a81548160ff0219169083600181111561090857610907610e21565b5b021790555060007f000000000000000000000000000000000000000000000000000000000000000073ffffffffffffffffffffffffffffffffffffffff16635d3b1d307f00000000000000000000000000000000000000000000000000000000000000007f000000000000000000000000000000000000000000000000000000000000000060037f000000000000000000000000000000000000000000000000000000000000000060016040518663ffffffff1660e01b81526004016109d2959493929190611314565b6020604051808303816000875af11580156109f1573d6000803e3d6000fd5b505050506040513d601f19601f82011682018060405250810190610a15919061137c565b9050807fb67476d1d38e93caac2ca37113122e613c199269c4cea0d39c67807a6442b40a60405160405180910390a250565b600067ffffffffffffffff811115610a6257610a61610bda565b5b604051908082528060200260200182016040528015610a905781602001602082028036833780820191505090505b5060009080519060200190610aa6929190610aa9565b50565b828054828255906000526020600020908101928215610b22579160200282015b82811115610b215782518260006101000a81548173ffffffffffffffffffffffffffffffffffffffff021916908373ffffffffffffffffffffffffffffffffffffffff16021790555091602001919060010190610ac9565b5b509050610b2f9190610b33565b5090565b5b80821115610b4c576000816000905550600101610b34565b5090565b6000819050919050565b610b6381610b50565b82525050565b6000602082019050610b7e6000830184610b5a565b92915050565b6000604051905090565b600080fd5b600080fd5b610ba181610b50565b8114610bac57600080fd5b50565b600081359050610bbe81610b98565b92915050565b600080fd5b6000601f19601f8301169050919050565b7f4e487b7100000000000000000000000000000000000000000000000000000000600052604160045260246000fd5b610c1282610bc9565b810181811067ffffffffffffffff82111715610c3157610c30610bda565b5b80604052505050565b6000610c44610b84565b9050610c508282610c09565b919050565b600067ffffffffffffffff821115610c7057610c6f610bda565b5b602082029050602081019050919050565b600080fd5b6000610c99610c9484610c55565b610c3a565b90508083825260208201905060208402830185811115610cbc57610cbb610c81565b5b835b81811015610ce55780610cd18882610baf565b845260208401935050602081019050610cbe565b5050509392505050565b600082601f830112610d0457610d03610bc4565b5b8135610d14848260208601610c86565b91505092915050565b60008060408385031215610d3457610d33610b8e565b5b6000610d4285828601610baf565b925050602083013567ffffffffffffffff811115610d6357610d62610b93565b5b610d6f85828601610cef565b9150509250929050565b600080fd5b60008083601f840112610d9457610d93610bc4565b5b8235905067ffffffffffffffff811115610db157610db0610d79565b5b602083019150836001820283011115610dcd57610dcc610c81565b5b9250929050565b60008060208385031215610deb57610dea610b8e565b5b600083013567ffffffffffffffff811115610e0957610e08610b93565b5b610e1585828601610d7e565b92509250509250929050565b7f4e487b7100000000000000000000000000000000000000000000000000000000600052602160045260246000fd5b60028110610e6157610e60610e21565b5b50565b6000819050610e7282610e50565b919050565b6000610e8282610e64565b9050919050565b610e9281610e77565b82525050565b6000602082019050610ead6000830184610e89565b92915050565b600080fd5b600067ffffffffffffffff821115610ed357610ed2610bda565b5b610edc82610bc9565b9050602081019050919050565b82818337600083830152505050565b6000610f0b610f0684610eb8565b610c3a565b905082815260208101848484011115610f2757610f26610eb3565b5b610f32848285610ee9565b509392505050565b600082601f830112610f4f57610f4e610bc4565b5b8135610f5f848260208601610ef8565b91505092915050565b600060208284031215610f7e57610f7d610b8e565b5b600082013567ffffffffffffffff811115610f9c57610f9b610b93565b5b610fa884828501610f3a565b91505092915050565b60008115159050919050565b610fc681610fb1565b82525050565b600081519050919050565b600082825260208201905092915050565b60005b83811015611006578082015181840152602081019050610feb565b60008484015250505050565b600061101d82610fcc565b6110278185610fd7565b9350611037818560208601610fe8565b61104081610bc9565b840191505092915050565b60006040820190506110606000830185610fbd565b81810360208301526110728184611012565b90509392505050565b600073ffffffffffffffffffffffffffffffffffffffff82169050919050565b60006110a68261107b565b9050919050565b6110b68161109b565b82525050565b60006020820190506110d160008301846110ad565b92915050565b6000602082840312156110ed576110ec610b8e565b5b60006110fb84828501610baf565b91505092915050565b600060408201905061111960008301856110ad565b61112660208301846110ad565b9392505050565b60006060820190506111426000830186610b5a565b61114f6020830185610b5a565b61115c6040830184610e89565b949350505050565b7f4e487b7100000000000000000000000000000000000000000000000000000000600052601160045260246000fd5b600061119e82610b50565b91506111a983610b50565b92508282039050818111156111c1576111c0611164565b5b92915050565b7f4e487b7100000000000000000000000000000000000000000000000000000000600052603260045260246000fd5b7f4e487b7100000000000000000000000000000000000000000000000000000000600052601260045260246000fd5b600061123082610b50565b915061123b83610b50565b92508261124b5761124a6111f6565b5b828206905092915050565b600081905092915050565b50565b6000611271600083611256565b915061127c82611261565b600082019050919050565b600061129282611264565b9150819050919050565b6000819050919050565b6112af8161129c565b82525050565b600067ffffffffffffffff82169050919050565b6112d2816112b5565b82525050565b600061ffff82169050919050565b6112ef816112d8565b82525050565b600063ffffffff82169050919050565b61130e816112f5565b82525050565b600060a08201905061132960008301886112a6565b61133660208301876112c9565b61134360408301866112e6565b6113506060830185611305565b61135d6080830184611305565b9695505050505050565b60008151905061137681610b98565b92915050565b60006020828403121561139257611391610b8e565b5b60006113a084828501611367565b9150509291505056fea26469706673582212205edecd9108316bd9c6a7de820161fba8a3502d8962349cce6cdaf240ce407ce864736f6c63430008110033",
  "devdoc": {
    "kind": "dev",
    "methods": {},
    "version": 1
  },
  "userdoc": {
    "kind": "user",
    "methods": {},
    "version": 1
  },
  "storageLayout": {
    "storage": [
      {
        "astId": 871,
        "contract": "contracts/Lottery.sol:Lottery",
        "label": "players",
        "offset": 0,
        "slot": "0",
        "type": "t_array(t_address_payable)dyn_storage"
      },
      {
        "astId": 873,
        "contract": "contracts/Lottery.sol:Lottery",
        "label": "lastWinner",
        "offset": 0,
        "slot": "1",
        "type": "t_address_payable"
      },
      {
        "astId": 878,
        "contract": "contracts/Lottery.sol:Lottery",
        "label": "state",
        "offset": 20,
        "slot": "1",
        "type": "t_enum(LotteryState)847"
      },
      {
        "astId": 895,
        "contract": "contracts/Lottery.sol:Lottery",
        "label": "previousTimestamp",
        "offset": 0,
        "slot": "2",
        "type": "t_uint256"
      }
    ],
    "types": {
      "t_address_payable": {
        "encoding": "inplace",
        "label": "address payable",
        "numberOfBytes": "20"
      },
      "t_array(t_address_payable)dyn_storage": {
        "base": "t_address_payable",
        "encoding": "dynamic_array",
        "label": "address payable[]",
        "numberOfBytes": "32"
      },
      "t_enum(LotteryState)847": {
        "encoding": "inplace",
        "label": "enum LotteryState",
        "numberOfBytes": "1"
      },
      "t_uint256": {
        "encoding": "inplace",
        "label": "uint256",
        "numberOfBytes": "32"
      }
    }
  }
}